{
  "transactions": [
    {
      "hash": "0xe05ad72256c8dc1120e19d8337ec8b3b04534460896489e8f7b8fc96b761f023",
      "transactionType": "CALL",
      "contractName": null,
      "contractAddress": "0x2cff5f1bc50f990499a90b543a0f51ae974c0e6c",
      "function": "mint(address,uint256)",
      "arguments": [
        "0xE4093D17907DAA292A24820667cE607D5C089902",
        "10000000"
      ],
      "transaction": {
        "from": "0xe4093d17907daa292a24820667ce607d5c089902",
        "to": "0x2cff5f1bc50f990499a90b543a0f51ae974c0e6c",
        "gas": "0x127da",
        "value": "0x0",
        "input": "0x40c10f19000000000000000000000000e4093d17907daa292a24820667ce607d5c0899020000000000000000000000000000000000000000000000000000000000989680",
        "nonce": "0x4",
        "chainId": "0x4cef52"
      },
      "additionalContracts": [],
      "isFixedGasLimit": false
    },
    {
      "hash": "0xb1f7cbacb2e7cc179ebb20a2f1beb8407ed95ec657ba04c0866cf2176f22ceeb",
      "transactionType": "CALL",
      "contractName": null,
      "contractAddress": "0x2cff5f1bc50f990499a90b543a0f51ae974c0e6c",
      "function": "approve(address,uint256)",
      "arguments": [
        "0x5D40701a93Ffd6770D360983DB4791EF5Cfa6863",
        "1000000"
      ],
      "transaction": {
        "from": "0xe4093d17907daa292a24820667ce607d5c089902",
        "to": "0x2cff5f1bc50f990499a90b543a0f51ae974c0e6c",
        "gas": "0xfd00",
        "value": "0x0",
        "input": "0x095ea7b30000000000000000000000005d40701a93ffd6770d360983db4791ef5cfa686300000000000000000000000000000000000000000000000000000000000f4240",
        "nonce": "0x5",
        "chainId": "0x4cef52"
      },
      "additionalContracts": [],
      "isFixedGasLimit": false
    },
    {
      "hash": "0xce7334815ad78f8ea5ae49a5801220be906e42fcee7b09a1900a4f73e9b76bcb",
      "transactionType": "CALL",
      "contractName": null,
      "contractAddress": "0x5d40701a93ffd6770d360983db4791ef5cfa6863",
      "function": "createPayment(address,address,uint256,bytes32,uint256)",
      "arguments": [
        "0xAAd6B01820080Ce5E060dE2574f91e8EF535f11F",
        "0x2Cff5f1Bc50F990499A90B543A0f51Ae974c0E6c",
        "1000000",
        "0x0000000000000000000000000000000000000000000000000000000000000000",
        "0"
      ],
      "transaction": {
        "from": "0xe4093d17907daa292a24820667ce607d5c089902",
        "to": "0x5d40701a93ffd6770d360983db4791ef5cfa6863",
        "gas": "0x5ba03",
        "value": "0x0",
        "input": "0xa03975fe000000000000000000000000aad6b01820080ce5e060de2574f91e8ef535f11f0000000000000000000000002cff5f1bc50f990499a90b543a0f51ae974c0e6c00000000000000000000000000000000000000000000000000000000000f424000000000000000000000000000000000000000000000000000000000000000000000000000000000000000000000000000000000000000000000000000000000",
        "nonce": "0x6",
        "chainId": "0x4cef52"
      },
      "additionalContracts": [],
      "isFixedGasLimit": false
    }
  ],
  "receipts": [
    {
      "status": "0x1",
      "cumulativeGasUsed": "0x181453",
      "logs": [
        {
          "address": "0x2cff5f1bc50f990499a90b543a0f51ae974c0e6c",
          "topics": [
            "0xddf252ad1be2c89b69c2b068fc378daa952ba7f163c4a11628f55a4df523b3ef",
            "0x0000000000000000000000000000000000000000000000000000000000000000",
            "0x000000000000000000000000e4093d17907daa292a24820667ce607d5c089902"
          ],
          "data": "0x0000000000000000000000000000000000000000000000000000000000989680",
          "blockHash": "0x7e0a33a67d31722ae730b7a7b3c78a874a35e72015b8415bc5c0242ab28bf062",
          "blockNumber": "0x167f33c",
          "blockTimestamp": "0x6976708c",
          "transactionHash": "0xce7334815ad78f8ea5ae49a5801220be906e42fcee7b09a1900a4f73e9b76bcb",
          "transactionIndex": "0x3",
          "logIndex": "0x16",
          "removed": false
        }
      ],
      "logsBloom": "0x00000000000000000000000000000000000000000000000000000000000000000000000000000000000000000000000000000000000000000000000000000000000000200000000000000008000000000000000000000000000000000000000000000000020000000000000000000800000000000000000000000014000000000000000000000000000000000000000000000000000000000000000000000000000000000000000000000000000040000000000020000000000000000000000000000002000000000000000000040000000000000000000000000000000020000000000000000000000000000000000000000000000000000000000000000000",
      "type": "0x2",
      "transactionHash": "0xce7334815ad78f8ea5ae49a5801220be906e42fcee7b09a1900a4f73e9b76bcb",
      "transactionIndex": "0x3",
      "blockHash": "0x7e0a33a67d31722ae730b7a7b3c78a874a35e72015b8415bc5c0242ab28bf062",
      "blockNumber": "0x167f33c",
      "gasUsed": "0xca4b",
      "effectiveGasPrice": "0x2540edf611",
      "from": "0xe4093d17907daa292a24820667ce607d5c089902",
      "to": "0x2cff5f1bc50f990499a90b543a0f51ae974c0e6c",
      "contractAddress": null
    },
    {
      "status": "0x1",
      "cumulativeGasUsed": "0x18cb7f",
      "logs": [
        {
          "address": "0x2cff5f1bc50f990499a90b543a0f51ae974c0e6c",
          "topics": [
            "0x8c5be1e5ebec7d5bd14f71427d1e84f3dd0314c0f7b2291e5b200ac8c7c3b925",
            "0x000000000000000000000000e4093d17907daa292a24820667ce607d5c089902",
            "0x0000000000000000000000005d40701a93ffd6770d360983db4791ef5cfa6863"
          ],
          "data": "0x00000000000000000000000000000000000000000000000000000000000f4240",
          "blockHash": "0x7e0a33a67d31722ae730b7a7b3c78a874a35e72015b8415bc5c0242ab28bf062",
          "blockNumber": "0x167f33c",
          "blockTimestamp": "0x6976708c",
          "transactionHash": "0xe05ad72256c8dc1120e19d8337ec8b3b04534460896489e8f7b8fc96b761f023",
          "transactionIndex": "0x4",
          "logIndex": "0x17",
          "removed": false
        }
      ],
      "logsBloom": "0x00000000000000000000000000000000000000000000000000000000000000000000000000000000000000000000000000000000000000000000000000200000000000200000000000000000000000000000000020000000000000000000000000000000000000040000000000000000000000000000000000000004001000000000000000000000000000000000000000000000000000000000000000000000020000000000000000000000000040000000000020000000000000000000000000000002000000000000000000040000000000000000000000000000000000000010000000000000000000000000000000000000000000000000000000000000",
      "type": "0x2",
      "transactionHash": "0xe05ad72256c8dc1120e19d8337ec8b3b04534460896489e8f7b8fc96b761f023",
      "transactionIndex": "0x4",
      "blockHash": "0x7e0a33a67d31722ae730b7a7b3c78a874a35e72015b8415bc5c0242ab28bf062",
      "blockNumber": "0x167f33c",
      "gasUsed": "0xb72c",
      "effectiveGasPrice": "0x2540edf611",
      "from": "0xe4093d17907daa292a24820667ce607d5c089902",
      "to": "0x2cff5f1bc50f990499a90b543a0f51ae974c0e6c",
      "contractAddress": null
    },
    {
      "status": "0x1",
      "cumulativeGasUsed": "0x1cf0de",
      "logs": [
        {
          "address": "0x2cff5f1bc50f990499a90b543a0f51ae974c0e6c",
          "topics": [
            "0xddf252ad1be2c89b69c2b068fc378daa952ba7f163c4a11628f55a4df523b3ef",
            "0x000000000000000000000000e4093d17907daa292a24820667ce607d5c089902",
            "0x0000000000000000000000005d40701a93ffd6770d360983db4791ef5cfa6863"
          ],
          "data": "0x00000000000000000000000000000000000000000000000000000000000f4240",
          "blockHash": "0x7e0a33a67d31722ae730b7a7b3c78a874a35e72015b8415bc5c0242ab28bf062",
          "blockNumber": "0x167f33c",
          "blockTimestamp": "0x6976708c",
          "transactionHash": "0xb1f7cbacb2e7cc179ebb20a2f1beb8407ed95ec657ba04c0866cf2176f22ceeb",
          "transactionIndex": "0x5",
          "logIndex": "0x18",
          "removed": false
        },
        {
          "address": "0x5d40701a93ffd6770d360983db4791ef5cfa6863",
          "topics": [
            "0xca49edc389b6ef7393091a34e8ae1bd1cc0c179b4a46ade0df379bceff70cc88",
            "0x0000000000000000000000000000000000000000000000000000000000000000",
            "0x000000000000000000000000e4093d17907daa292a24820667ce607d5c089902",
            "0x000000000000000000000000aad6b01820080ce5e060de2574f91e8ef535f11f"
          ],
          "data": "0x0000000000000000000000002cff5f1bc50f990499a90b543a0f51ae974c0e6c00000000000000000000000000000000000000000000000000000000000f42400000000000000000000000000000000000000000000000000000000000000000000000000000000000000000000000000000000000000000000000006977c20c",
          "blockHash": "0x7e0a33a67d31722ae730b7a7b3c78a874a35e72015b8415bc5c0242ab28bf062",
          "blockNumber": "0x167f33c",
          "blockTimestamp": "0x6976708c",
          "transactionHash": "0xb1f7cbacb2e7cc179ebb20a2f1beb8407ed95ec657ba04c0866cf2176f22ceeb",
          "transactionIndex": "0x5",
          "logIndex": "0x19",
          "removed": false
        }
      ],
      "logsBloom": "0x08000000000000000000000400000004000000000000000000000000000000000000000000000000000000000000000000000000000000000000000000000000000000200000000000000008000200000000000020000000000000000000000000000000028000040000000000000800000000000000000000000014001000000000000000000000000010000000000000000000000000000000000000000000000000000000000000000000000040100000000020000000000000000000000000000002000000000000000000040800000000000000000000000000000020000000000000000000000000000000000000000000000000000000000000080000",
      "type": "0x2",
      "transactionHash": "0xb1f7cbacb2e7cc179ebb20a2f1beb8407ed95ec657ba04c0866cf2176f22ceeb",
      "transactionIndex": "0x5",
      "blockHash": "0x7e0a33a67d31722ae730b7a7b3c78a874a35e72015b8415bc5c0242ab28bf062",
      "blockNumber": "0x167f33c",
      "gasUsed": "0x4255f",
      "effectiveGasPrice": "0x2540edf611",
      "from": "0xe4093d17907daa292a24820667ce607d5c089902",
      "to": "0x5d40701a93ffd6770d360983db4791ef5cfa6863",
      "contractAddress": null
    }
  ],
  "libraries": [],
  "pending": [],
  "returns": {},
  "timestamp": 1769369744900,
  "chain": 5042002,
  "commit": null
}