{
  "transactions": [
    {
      "hash": "0xafbede6143e2f641423b5a4884116e52016e9555172c0b71dc6e89536c71ccb5",
      "transactionType": "CALL",
      "contractName": null,
      "contractAddress": "0xef3a17549c748e371d5166d68ff9a5ed4b729c8f",
      "function": "approve(address,uint256)",
      "arguments": [
        "0x5D40701a93Ffd6770D360983DB4791EF5Cfa6863",
        "115792089237316195423570985008687907853269984665640564039457584007913129639935"
      ],
      "transaction": {
        "from": "0xe4093d17907daa292a24820667ce607d5c089902",
        "to": "0xef3a17549c748e371d5166d68ff9a5ed4b729c8f",
        "gas": "0xfee1",
        "value": "0x0",
        "input": "0x095ea7b30000000000000000000000005d40701a93ffd6770d360983db4791ef5cfa6863ffffffffffffffffffffffffffffffffffffffffffffffffffffffffffffffff",
        "nonce": "0xe",
        "chainId": "0x4cef52"
      },
      "additionalContracts": [],
      "isFixedGasLimit": false
    }
  ],
  "receipts": [
    {
      "status": "0x1",
      "cumulativeGasUsed": "0xd4ced",
      "logs": [
        {
          "address": "0xef3a17549c748e371d5166d68ff9a5ed4b729c8f",
          "topics": [
            "0x8c5be1e5ebec7d5bd14f71427d1e84f3dd0314c0f7b2291e5b200ac8c7c3b925",
            "0x000000000000000000000000e4093d17907daa292a24820667ce607d5c089902",
            "0x0000000000000000000000005d40701a93ffd6770d360983db4791ef5cfa6863"
          ],
          "data": "0xffffffffffffffffffffffffffffffffffffffffffffffffffffffffffffffff",
          "blockHash": "0xf55da7b3b28ae3e56c5fe7dd8cecc71c9a1680bfe1fab7d2587d613bea8eb55f",
          "blockNumber": "0x17667b4",
          "blockTimestamp": "0x697dabd2",
          "transactionHash": "0xafbede6143e2f641423b5a4884116e52016e9555172c0b71dc6e89536c71ccb5",
          "transactionIndex": "0x9",
          "logIndex": "0x22",
          "removed": false
        }
      ],
      "logsBloom": "0x00000000000000000000000000000000000000000000000000000000000000000000000000000000000000000000000000000000000000000000000000200000000000000000000000000000000000000000000020000000000000000000000000000000000000040000000000000000000000000000000000000004001000000000000000000000000000000000000800000000000000000000000000000000020000000000000000000000000040000000000000000000000000000000000000000002080000008000000000000000000000000000000000000000000000000010000000000000000000000000000000000000000000000000000000000000",
      "type": "0x2",
      "transactionHash": "0xafbede6143e2f641423b5a4884116e52016e9555172c0b71dc6e89536c71ccb5",
      "transactionIndex": "0x9",
      "blockHash": "0xf55da7b3b28ae3e56c5fe7dd8cecc71c9a1680bfe1fab7d2587d613bea8eb55f",
      "blockNumber": "0x17667b4",
      "gasUsed": "0xb888",
      "effectiveGasPrice": "0x4a83446e4",
      "from": "0xe4093d17907daa292a24820667ce607d5c089902",
      "to": "0xef3a17549c748e371d5166d68ff9a5ed4b729c8f",
      "contractAddress": null
    }
  ],
  "libraries": [],
  "pending": [],
  "returns": {},
  "timestamp": 1769843668735,
  "chain": 5042002,
  "commit": "537d9bc"
}